:020000040000FA
:1000000010400020150200001D0200001F02000029
:100010002102000023020000250200000000000071
:1000200000000000000000000000000027020000A7
:1000300029020000000000002B0200002D02000039
:100040002F0200002F0200002F0200002F020000EC
:100050002F0200002F0200002F0200002F020000DC
:100060008D040000C10400002F0200002F020000D8
:100070002F0200002F0200002F0200002F020000BC
:100080002F0200002F0200002F0200002F020000AC
:100090002F0200002F0200002F0200002F0200009C
:1000A0002F0200002F0200002F0200002F0200008C
:1000B0002F0200002F0200000000000000000000DE
:1000C0002F0200002F0200002F0200002F0200006C
:1000D0002F0200002F0200002F0200002F0200005C
:1000E0002F0200002F0200002F020000000000007D
:1000F000000000002F020000000000002F0200009E
:1001000000000000000000000000000000000000EF
:1001100000000000000000000000000000000000DF
:1001200000000000000000000000000000000000CF
:1001300000000000000000000000000000000000BF
:1001400000000000000000000000000000000000AF
:10015000000000000000000000000000000000009F
:10016000000000000000000000000000000000008F
:10017000000000000000000000000000000000007F
:10018000000000000000000000000000000000006F
:10019000000000000000000000000000000000005F
:1001A000000000000000000000000000000000004F
:1001B000000000000000000000000000000000003F
:1001C000000000000000000000000000000000002F
:1001D000000000000000000000000000000000001F
:1001E000000000000000000000000000000000000F
:1001F00000000000000000000000000000000000FF
:10020000DFF80CD000F018F8004800477B0700002A
:10021000104000200648804706480047FEE7FEE7FA
:10022000FEE7FEE7FEE7FEE7FEE7FEE7FEE7FEE7A6
:100230006D02000001020000064C074D06E0E06878
:1002400040F0010394E8070098471034AC42F6D31D
:10025000FFF7DAFFE4090000040A00000148024940
:10026000086070470090D0030C00002010B500F02B
:100270003FFB40B10020774908604FF08041C1F852
:1002800010017549086000F055FB002855D07348EF
:100290000068734908607148001D0068091D086006
:1002A0006E4808300068091D08606C480C30006812
:1002B000091D0860694810300068091D086067481A
:1002C00014300068091D08606448183000686449EB
:1002D0002031086061481C300068091D08605F48D3
:1002E00020300068091D08605C4824300068091D42
:1002F00008605A4828300068091D086057482C30AB
:100300000068091D08605548303000685449403184
:100310000860524834300068091D08604F48383082
:100320000068091D08604D483C300068091D0860E0
:100330004A4840300068091D086000F01DFB10B1FC
:1003400048484949086000F04BFA10B1FB20474982
:10035000086000F067FA38B1454801784548006800
:1003600061F303004349086000F07EFA18B14FF4CE
:1003700000704149086000F099FA40B13F480068B8
:1003800000F0010018B16FF001003C4908603C48E2
:10039000006840F470003A49086000BF00BF00BF29
:1003A000BFF34F8F00BF00BF00BF00BF00BF00BF43
:1003B000BFF36F8F00BF00BF00BF00BF00F0EEF9BA
:1003C00020B13048006824492031086000BF2D4822
:1003D0000838006800F0004028B92A48001F00686B
:1003E00000F0004090B3012000F0E8FA1220254907
:1003F0000839086000F0ECFA12214FF01020C0F824
:10040000041200F0E5FA002000F0D8FA00BF00BFA7
:1004100000BF00BF00BFBFF34F8F00BF00BF00BFD2
:1004200017487C38006800F4E06017490843001D55
:1004300013497C39086000BF00BF00BFBFF34F8F76
:1004400000BF00BF00BF00BF00BFFDE7FFE7FFF731
:1004500005FF10BD0C0100403805004004040010E9
:1004600020C50040488103008C56004018F500402C
:1004700058020010E40E0040409602400004004084
:1004800088ED00E0081200100000FA0508B50948E0
:10049000006801280CD10020064908600648D0F801
:1004A0004001009000BF05480068401C03490860F7
:1004B00008BD000040810040008000400400002092
:1004C00008B50848006801280AD107480068804735
:1004D0000020044908600548D0F84001009000BFA2
:1004E00008BD00004091004008000020009000403E
:1004F00000280DDB00BF00BF00F01F02012191406A
:100500004209920002F1E022C2F8001100BF00BFD0
:10051000704702E008C8121F08C1002AFAD17047CC
:100520007047002001E001C1121F002AFBD1704773
:100530000446204600F034F804494FF4FA7000F005
:1005400057F801E000F004F8FCE700007107000034
:1005500010B500F05FF810BD10B50446042C07D8A4
:1005600034B1611E034A505C4FF0FF3100F054F883
:1005700010BD0000E009000070B50446042C0CD842
:100580005CB1611E054A505C00F060F8C543611E15
:10059000024A505C294600F03FF870BDE0090000B7
:1005A00010B50446042C06D82CB1611E024A505CDA
:1005B000002100F031F810BDE009000010B5002462
:1005C00008E00649085D012100F04EF8601CFFF7C5
:1005D000C3FF641C042CF4D3042010BDE009000008
:1005E00010B500F057F80149086010BD0000002068
:1005F00070B504460D464FF47A7104FB01F00449CE
:10060000096800FB01F62946304600F067F870BD26
:100610000000002030BF7047012303FA00F201F010
:10062000010313B9034B1A6002E0024B1B1F1A604F
:10063000704700000C050050012103480160001DB7
:100640000160001D01607047340700500146012021
:1006500000FA01F203480068104008B10120704719
:100660000020FCE70405005010B5012303FA00F256
:1006700029B9074B1B689343054C236006E0012909
:1006800004D1034B1B681343014C236010BD0000D1
:100690001405005010B500200C49086003200C49D7
:1006A000086000200A4908310860801E0849383176
:1006B00008604FF48030074908600820FFF718FFF2
:1006C000012005490860102010BD00000400002032
:1006D00008850040048300400080004070B5044657
:1006E0000D461E480560C4B103201D4908601C4822
:1006F0003830046000201A49083108604FF4803017
:100700001849086001201849C1F800020920FFF7C4
:10071000EFFE0120144908601FE000201249086024
:100720000920002817DB00F01F02012191400F4A29
:10073000430942F8231000BF00BF00BFBFF34F8F33
:1007400000BF00BF00BF00BF00BF00BFBFF36F8F7F
:1007500000BF00BF00BF00BF00BF70BD0800002089
:1007600008950040049300400090004080E100E0C4
:1007700010B50320FFF700FF10BD10B5FFF730FFE5
:10078000FFF75AFFFFF71AFF04462CB10120FFF7CD
:1007900007FF0320FFF7CCFE002010BD0F480268C2
:1007A0004FF08050D0F83411082A14D1062910D205
:1007B000DFE801F0030507090B0D0020704700205A
:1007C000FCE70020FAE70020F8E70020F6E7012028
:1007D000F4E70120F2E70020F0E70000300100100C
:1007E0000F4802684FF08050D0F83411082A14D115
:1007F000062910D2DFE801F0030507090B0D0120DF
:1008000070470020FCE70020FAE70020F8E700200E
:10081000F6E70020F4E70020F2E70020F0E7000010
:10082000300100100F4802684FF08050D0F83411AA
:10083000082A14D1062910D2DFE801F003050709C0
:100840000B0D012070470020FCE70020FAE7002094
:10085000F8E70020F6E70020F4E70020F2E70020A8
:10086000F0E70000300100100F4802684FF08050A0
:10087000D0F83411082A14D1062910D2DFE801F08B
:10088000030507090B0D012070470020FCE700203D
:10089000FAE70020F8E70020F6E70020F4E7002060
:1008A000F2E70020F0E70000300100100F48026876
:1008B0004FF08050D0F83411082A14D1062910D2F4
:1008C000DFE801F0030507090B0D01207047012047
:1008D000FCE70120FAE70120F8E70120F6E7012014
:1008E000F4E70120F2E70020F0E7000030010010FB
:1008F0000F4802684FF08050D0F83411082A14D104
:10090000062910D2DFE801F0030507090B0D0120CD
:1009100070470120FCE70120FAE70120F8E70120F9
:10092000F6E70120F4E70120F2E70020F0E70000FD
:10093000300100100F4802684FF08050D0F8341199
:10094000082A14D1062910D2DFE801F003050709AF
:100950000B0D012070470120FCE70120FAE7012080
:10096000F8E70120F6E70120F4E70120F2E7002094
:10097000F0E70000300100100F4802684FF080508F
:10098000D0F83411082A14D1062910D2DFE801F07A
:10099000030507090B0D012070470020FCE700202C
:1009A000FAE70020F8E70020F6E70020F4E700204F
:1009B000F2E70020F0E700003001001000B501462A
:1009C0000248016000F004F800BD000004E50140A9
:1009D00000BF024800680028FBD0704700E40140D7
:1009E0000D0E0F10040A000000000020100000008F
:1009F00012050000140A0000100000200040000052
:100A000022050000000000000000000000000000BF
:040A10000090D0037F
:0400000500000215E0
:00000001FF
