:020000040000FA
:1000000010400020150200001D0200001F02000029
:100010002102000023020000250200000000000071
:1000200000000000000000000000000027020000A7
:1000300029020000000000002B0200002D02000039
:100040002F0200002F0200002F0200002F020000EC
:100050002F0200002F0200002F0200002F020000DC
:100060002D0500002F0200002F0200002F020000CB
:100070002F0200002F0200002F0200002F020000BC
:100080002F0200002F0200002F0200002F020000AC
:100090002F0200002F0200002F0200002F0200009C
:1000A0002F0200002F0200002F0200002F0200008C
:1000B0002F0200002F0200000000000000000000DE
:1000C0002F0200002F0200002F0200002F0200006C
:1000D0002F0200002F0200002F0200002F0200005C
:1000E0002F0200002F0200002F020000000000007D
:1000F000000000002F020000000000002F0200009E
:1001000000000000000000000000000000000000EF
:1001100000000000000000000000000000000000DF
:1001200000000000000000000000000000000000CF
:1001300000000000000000000000000000000000BF
:1001400000000000000000000000000000000000AF
:10015000000000000000000000000000000000009F
:10016000000000000000000000000000000000008F
:10017000000000000000000000000000000000007F
:10018000000000000000000000000000000000006F
:10019000000000000000000000000000000000005F
:1001A000000000000000000000000000000000004F
:1001B000000000000000000000000000000000003F
:1001C000000000000000000000000000000000002F
:1001D000000000000000000000000000000000001F
:1001E000000000000000000000000000000000000F
:1001F00000000000000000000000000000000000FF
:10020000DFF80CD000F068F8004800479D070000B8
:10021000104000200648804706480047FEE7FEE7FA
:10022000FEE7FEE7FEE7FEE7FEE7FEE7FEE7FEE7A6
:100230000D030000010200002DE9F05F05460020DB
:1002400092469B4688460646814640241BE0284647
:1002500041464746224600F02FF853465A46C01AF8
:10026000914110D311461846224600F016F82D1A77
:1002700067EB01084F4622460120002100F00DF8EF
:1002800017EB00094E41201EA4F10104DFDC4846B3
:1002900031462A464346BDE8F09F202A04DB203A37
:1002A00000FA02F1002070479140C2F1200320FAC9
:1002B00003F3194390407047202A04DB203A21FAC7
:1002C00002F00021704721FA02F3D040C2F120026F
:1002D0009140084319467047064C074D06E0E06818
:1002E00040F0010394E8070098471034AC42F6D37D
:1002F000FFF78AFF080A0000280A000001480249A7
:10030000086070470090D0030800002010B500F08E
:1003100001FB40B10020774908604FF08041C1F8EF
:1003200010017549086000F017FB002855D073488C
:100330000068734908607148001D0068091D086065
:100340006E4808300068091D08606C480C30006871
:10035000091D0860694810300068091D0860674879
:1003600014300068091D086064481830006864494A
:100370002031086061481C300068091D08605F4832
:1003800020300068091D08605C4824300068091DA1
:1003900008605A4828300068091D086057482C300A
:1003A0000068091D086055483030006854494031E4
:1003B0000860524834300068091D08604F483830E2
:1003C0000068091D08604D483C300068091D086040
:1003D0004A4840300068091D086000F0DFFA10B19B
:1003E00048484949086000F00DFA10B1FB20474920
:1003F000086000F029FA38B145480178454800689E
:1004000061F303004349086000F040FA18B14FF46B
:1004100000704149086000F05BFA40B13F48006855
:1004200000F0010018B16FF001003C4908603C4841
:10043000006840F470003A49086000BF00BF00BF88
:10044000BFF34F8F00BF00BF00BF00BF00BF00BFA2
:10045000BFF36F8F00BF00BF00BF00BF00F0B0F957
:1004600020B13048006824492031086000BF2D4881
:100470000838006800F0004028B92A48001F0068CA
:1004800000F0004090B3012000F0AAFA12202549A4
:100490000839086000F0AEFA12214FF01020C0F8C1
:1004A000041200F0A7FA002000F09AFA00BF00BF83
:1004B00000BF00BF00BFBFF34F8F00BF00BF00BF32
:1004C00017487C38006800F4E06017490843001DB5
:1004D00013497C39086000BF00BF00BFBFF34F8FD6
:1004E00000BF00BF00BF00BF00BFFDE7FFE7FFF791
:1004F00005FF10BD0C010040380500400404001049
:1005000020C50040488103008C56004018F500408B
:1005100058020010E40E00404096024000040040E3
:1005200088ED00E0081200100000FA0508B509483F
:10053000006801280CD10020064908600648D0F860
:100540004001009000BF05480068401C0349086056
:1005500008BD0000408100400080004004000020F1
:1005600002E008C8121F08C1002AFAD1704770477C
:10057000002001E001C1121F002AFBD1704705468F
:10058000284600F031F800F04FF8044607E004F583
:10059000FA74204600F066F8284600F011F8F6E7F5
:1005A00010B50446042C07D834B1611E034A505CD0
:1005B0004FF0FF3100F068F810BD0000040A0000A1
:1005C00070B50446042C0CD85CB1611E054A505C21
:1005D00000F072F8C543611E024A505C294600F0E3
:1005E00053F870BD040A000010B50446042C06D868
:1005F0002CB1611E024A505C002100F045F810BD8C
:10060000040A000010B5002408E00649085D012135
:1006100000F060F8601CFFF7C3FF641C042CF4D3E7
:10062000042010BD040A000070B500F00BF8044669
:100630000D464FF47A72002320462946FFF7FCFD51
:1006400070BD000070B500F05BF804460D4604482C
:100650000023026820462946FFF7EEFD70BD00002A
:100660000000002010B5044600BFFFF7DDFFA042E8
:10067000FBD3FFF7D9FF10BD10B500F059F80149C1
:10068000086010BD00000020012303FA00F201F011
:10069000010313B9034B1A6002E0024B1B1F1A60DF
:1006A000704700000C050050012102480160001D48
:1006B00001607047340700500146012000FA01F242
:1006C00003480068104008B1012070470020FCE793
:1006D0000405005010B5012303FA00F229B9074BB5
:1006E0001B689343054C236006E0012904D1034BAA
:1006F0001B681343014C236010BD0000140500501B
:1007000070B5012107484164C81E07490968A0FB6C
:100710000156064909686A1846F100031046194651
:1007200070BD0000008000400400002044850040AF
:10073000002016490860032015490860002014496C
:1007400008310860801E1249383108604FF480304B
:100750001049086001201049C1F800020820002853
:100760000DDB00BF00BF00F01F02012191404209D4
:10077000920002F1E022C2F8001100BF00BF00BFEA
:100780000120054908601020704700000400002087
:1007900008850040048300400080004010B5FFF74A
:1007A0006BFFFFF781FFFFF72DFF04462CB10120FF
:1007B000FFF71AFF0220FFF7E2FE002010BD000045
:1007C0000F4802684FF08050D0F83411082A14D135
:1007D000062910D2DFE801F0030507090B0D002000
:1007E00070470020FCE70020FAE70020F8E700202F
:1007F000F6E70120F4E70120F2E70020F0E700002F
:10080000300100100F4802684FF08050D0F83411CA
:10081000082A14D1062910D2DFE801F003050709E0
:100820000B0D012070470020FCE70020FAE70020B4
:10083000F8E70020F6E70020F4E70020F2E70020C8
:10084000F0E70000300100100F4802684FF08050C0
:10085000D0F83411082A14D1062910D2DFE801F0AB
:10086000030507090B0D012070470020FCE700205D
:10087000FAE70020F8E70020F6E70020F4E7002080
:10088000F2E70020F0E70000300100100F48026896
:100890004FF08050D0F83411082A14D1062910D214
:1008A000DFE801F0030507090B0D01207047002068
:1008B000FCE70020FAE70020F8E70020F6E7002038
:1008C000F4E70020F2E70020F0E70000300100101C
:1008D0000F4802684FF08050D0F83411082A14D124
:1008E000062910D2DFE801F0030507090B0D0120EE
:1008F00070470120FCE70120FAE70120F8E701201A
:10090000F6E70120F4E70120F2E70020F0E700001D
:10091000300100100F4802684FF08050D0F83411B9
:10092000082A14D1062910D2DFE801F003050709CF
:100930000B0D012070470120FCE70120FAE70120A0
:10094000F8E70120F6E70120F4E70120F2E70020B4
:10095000F0E70000300100100F4802684FF08050AF
:10096000D0F83411082A14D1062910D2DFE801F09A
:10097000030507090B0D012070470120FCE701204A
:10098000FAE70120F8E70120F6E70120F4E701206B
:10099000F2E70020F0E70000300100100F48026885
:1009A0004FF08050D0F83411082A14D1062910D203
:1009B000DFE801F0030507090B0D01207047002057
:1009C000FCE70020FAE70020F8E70020F6E7002027
:1009D000F4E70020F2E70020F0E70000300100100B
:1009E00000B501460248016000F004F800BD0000B7
:1009F00004E5014000BF024800680028FBD07047B2
:100A000000E401400D0E0F10280A00000000002035
:100A10000C00000060050000340A00000C000020FB
:100A2000044000007005000000000000000000000D
:040A30000090D0035F
:0400000500000215E0
:00000001FF
