:020000040000FA
:1000000080460020150200001D0200001F020000B3
:100010002102000023020000250200000000000071
:1000200000000000000000000000000027020000A7
:1000300029020000000000002B0200002D02000039
:100040002F0200002F0200002F0200002F020000EC
:100050002F0200002F020000FD0200002F0200000E
:1000600035060000650600002F0200002F02000088
:100070002F0200002F0200002F0200002F020000BC
:100080002F0200002F0200002F0200002F020000AC
:100090002F0200002F0200002F0200002F0200009C
:1000A0002F0200002F0200002F0200002F0200008C
:1000B0002F0200002F0200000000000000000000DE
:1000C0002F0200002F0200002F0200002F0200006C
:1000D0002F0200002F0200002F0200002F0200005C
:1000E0002F0200002F0200002F020000000000007D
:1000F000000000002F020000000000002F0200009E
:1001000000000000000000000000000000000000EF
:1001100000000000000000000000000000000000DF
:1001200000000000000000000000000000000000CF
:1001300000000000000000000000000000000000BF
:1001400000000000000000000000000000000000AF
:10015000000000000000000000000000000000009F
:10016000000000000000000000000000000000008F
:10017000000000000000000000000000000000007F
:10018000000000000000000000000000000000006F
:10019000000000000000000000000000000000005F
:1001A000000000000000000000000000000000004F
:1001B000000000000000000000000000000000003F
:1001C000000000000000000000000000000000002F
:1001D000000000000000000000000000000000001F
:1001E000000000000000000000000000000000000F
:1001F00000000000000000000000000000000000FF
:10020000DFF80CD000F068F800480047090D000046
:10021000804600200648804706480047FEE7FEE784
:10022000FEE7FEE7FEE7FEE7FEE7FEE7FEE7FEE7A6
:10023000B5030000010200002DE9F05F0546002033
:1002400092469B4688460646814640241BE0284647
:1002500041464746224600F02FF853465A46C01AF8
:10026000914110D311461846224600F016F82D1A77
:1002700067EB01084F4622460120002100F00DF8EF
:1002800017EB00094E41201EA4F10104DFDC4846B3
:1002900031462A464346BDE8F09F202A04DB203A37
:1002A00000FA02F1002070479140C2F1200320FAC9
:1002B00003F3194390407047202A04DB203A21FAC7
:1002C00002F00021704721FA02F3D040C2F120026F
:1002D0009140084319467047064C074D06E0E06818
:1002E00040F0010394E8070098471034AC42F6D37D
:1002F000FFF78AFFB8150000D81500001E48D0F897
:1003000000C11E4900220F230968BCF1000F08D06C
:10031000C0F80833C0F8002119480068C0F3042071
:100320000847D0F804C1BCF1000F08D0C0F808336A
:10033000C0F8042113480068C0F304200847D0F82F
:1003400008C1BCF1000F08D0C0F80833C0F808217C
:100350000D480068C0F304200847D0F80CC1BCF178
:10036000000F08BF7047C0F80833C0F80C210748D9
:100370000068C0F3042008470060004080000020AF
:100380001065004014650040186500401C65004081
:1003900072B602490868421C0A6070478800002053
:1003A00003490868401E086018BF704762B670476E
:1003B0008800002010B44FF080520023D2E94C1086
:1003C000082909D14FF0804CCCF80C31CCF8103111
:1003D000DFF8D4C1CCF80030082965D1734B1B6815
:1003E000DFF8CCC1CCF80030724B1B680CF1040C68
:1003F000CCF80030704B1B680CF1040CCCF80030CA
:100400006E4B1B680CF1040CCCF800306C4B1B6875
:100410000CF1040CCCF800306A4B1B680CF1040C96
:10042000CCF80030684B1B68DFF8A0C1CCF8003076
:10043000674B1B680CF1040CCCF80030654B1B6853
:100440000CF1040CCCF80030634B1B680CF1040C6D
:10045000CCF80030614B1B680CF1040CCCF8003078
:100460005F4B1B680CF1040CCCF800305D4B1B6833
:10047000DFF874C1CCF800305C4B1B680CF1040C45
:10048000CCF800305A4B1B680CF1040CCCF800304F
:10049000584B1B680CF1040CCCF80030564B1B6811
:1004A0000CF1040CCCF80030082908BF5FEA000307
:1004B00004D1DFF84CC1514BCCF80030082908BFFB
:1004C0005FEA000304D1DFF83CC1FB23CCF8003025
:1004D000082908BF5FEA000308D14B4B92F8584245
:1004E000D3F800C064F3030CC3F800C0082908BFA8
:1004F0005FEA000305D1DFF814C14FF40073CCF8B4
:100500000030082907D14248016811F0010F1CBFD3
:100510006FF0010101603F48016841F47001016022
:10052000BFF34F8FBFF36F8FD2E94C104FF0102203
:10053000082905D1042803D9D2F8080236490860F1
:10054000D2F8000210F0004F04BFD2F8040210F0FD
:10055000004F24D0314B0120186031480168002938
:10056000FCD04FF0120CC2F800C201680029FCD088
:10057000C2F804C201680029FCD00021196001689A
:100580000029FCD0BFF34F8F26480168264A01F4AA
:10059000E06111430160BFF34F8F00BFFDE72449C5
:1005A0002248086010BC7047380500400404001061
:1005B00020C50040080400100C04001010040010B6
:1005C00014040010180400101C04001040C5004062
:1005D0002004001024040010280400102C04001033
:1005E000300400103404001060C5004038040010CE
:1005F0003C04001040040010440400104881030033
:100600008C56004018F50040E40E00404096024031
:100610000004004088ED00E05805004004E501407A
:1006200000E401400CED00E00400FA050090D00366
:100630008C000020094881B0D0F8401101291CBF6E
:1006400001B070470021C0F84011D0F8400100907F
:1006500003480168491C016001B0704700800040F8
:100660007800002038B5074CD4F84001012808D1A3
:100670000548406880470020C4F84001D4F8400194
:10068000009038BD009000407800002002E008C8CB
:10069000121F08C1002AFAD170477047002001E0FC
:1006A00001C1121F002AFBD170470000084A30B474
:1006B000D2F814C09468074A0021535C834202D1E7
:1006C000204630BC6047491C0429F6DB30BC70472B
:1006D00014000020B01500002DE9F041DFF858802B
:1006E00016460F46C8E90430C8E90212134800F064
:1006F00023FA134D00240021285D00F06BFA641CDE
:10070000042CF8DB00242146285D00F021FA641C4B
:10071000042CF8DB002088F800000120C8F8040051
:100720000849384600F028FE0649304600F024FE0D
:100730000420BDE8F081000014000020AD06000098
:10074000B0150000490700002DE9F0413B4F0C4671
:1007500001263A789AB13946012AC9681FD0384D26
:100760004FF00008022A2AD0032A18BFBDE8F08102
:1007700087F80080285DBDE8F04100F0A5B9B968B0
:10078000884218BFBDE8F0813E706421002000F06F
:100790009DFE2246F968BDE8F04100F017BE884290
:1007A00018BFBDE8F081022038709621012000F0CA
:1007B0008DFE2246F968BDE8F04100F007BE884290
:1007C00018BFBDE8F081285D00F072F900B37868C9
:1007D00000281ABF00263446BDE8F081285D00F0ED
:1007E00067F9012808BF761C641C042CF6DB022E76
:1007F00018BFBDE8F08140F6B831002000F066FE79
:100800000022396900F0E2FDC7F80480BDE8F081FC
:1008100003207E6038700021084600F057FE002259
:10082000396900F0D3FD6421002000F04FFE22461C
:10083000F968BDE8F04100F0C9BD000014000020D7
:10084000B0150000044810B5406800F0ABF8BDE8F2
:10085000104000F021B900002C00002010B5054C1C
:10086000206800F079F800F01FF92068BDE810401A
:1008700000F098B82C00002010B5064CC4E9000127
:1008800000F078F8206800F08DF8BDE8104000F026
:100890000DB900002C00002070B5411E0C4D03293D
:1008A00008D828444FF0FF3110F8010CBDE8704023
:1008B00000F07CB900280CBF002470BD285D4FF00B
:1008C000FF3100F073F9641C042CF7DB70BD0000ED
:1008D000AC15000070B5411E0B4D032907D8284404
:1008E000002110F8010CBDE8704000F05FB900284D
:1008F0000CBF002470BD285D002100F057F9641C76
:10090000042CF8DB70BD0000AC15000070B5114E72
:1009100000250121705D00F05DF9681C032D07D8EA
:1009200030444FF0FF3110F8010C00F03FF90BE0BC
:10093000002808BF002407D1305D4FF0FF3100F0E0
:1009400035F9641C042CF7DB6D1C042DE1D3042065
:1009500070BD0000AC150000411E032988BF704720
:10096000034908444FF0FF3110F8010C00F01EB9A4
:10097000B415000070B50A4D00240121285D00F077
:1009800029F9601C032C06D828444FF0FF3110F8D9
:10099000010C00F00BF9641C042CEED3042070BD94
:1009A000B4150000411E032988BF7047034908445D
:1009B000002110F8010C00F0F9B80000B415000097
:1009C00010B500F033F9054A00231268FFF734FC34
:1009D0004FF47A720023FFF72FFC10BD08000020AF
:1009E00010B500F023F9034A00231268FFF724FC36
:1009F00010BD00000800002010B500F02DF90149DD
:100A0000086010BD08000020064BD3F800C0C3E901
:100A1000012100FB0CF04FF47A7C00FB0CF0024942
:100A200000F03EB9080000202D0A000010B5FFF7C5
:100A3000C7FF034A0146D2E90102BDE81040104752
:100A40000800002002490148086070473546526E90
:100A5000000601404FF0FF3101EBC030084908604B
:100A600008480068002818BF704701200649086040
:100A7000091D086005490860064905480860704777
:100A80000405014000040140080501400000014048
:100A90003546526E0006014002490120086020BF21
:100AA000FDE700000005004030BF704770470000C0
:100AB00004490968012202FA00F001420CBF01203A
:100AC0000020704710050050194B00214FF0FF32F5
:100AD0005B68002B98BF704710B400BF4FEA810CD1
:100AE0000CF1804C0CF5C04CDCF81045DCF810C55E
:100AF000CCF3042C844508BF0A46491C9942EDD327
:100B0000B2F1FF3F04BF10BC7047900000F180407D
:100B100000F5C040D0F8001100291CBF0021C0F82A
:100B200000110F200349C1F8040310BC70470000F6
:100B300080000020006000400449086000204860F8
:100B40004FF0E0214020C1F80001704780000020F4
:100B50000C23820002F1A042C2F80037D2F800371D
:100B600043F44033C2F800370D4A42EA00228800BD
:100B700000F1804000F5C040C0F81025094A5368D4
:100B80005B1C53600022C0F800210748D0F8042302
:100B9000012303FA01F11143C0F804137047000068
:100BA000010003008000002000600040012202FAE2
:100BB00000F011F0010F0CBF0149024908607047B5
:100BC0000C050050080500500149002008607047DE
:100BD000140500504FF0010C0CFA00F30A4A800093
:100BE00000F1A04041B1012918BF704711681943B5
:100BF0001160C0F800C77047116899431160002167
:100C0000C0F800177047000014050050034A12682E
:100C1000B2FBF1F301FB13210844704708D50040F3
:100C2000014901200860704700D0004007490120B9
:100C30004864074800686FF00101A0FB01230548E4
:100C40000068101843F10001704700000080004068
:100C500078000020448500400C49002008600C4AC0
:100C6000032111600B4908600B49801E08600B4886
:100C70004FF48031C0F8041301214FF0E0238215B6
:100C8000C3F80021016010207047000078000020A8
:100C900008850040108500404085004000800040ED
:100CA00070B4124A4FF4007C4FF0E02451600022EF
:100CB0000F49012380B10F4E032535600E4D28608A
:100CC0000E4802601804C1F80403C1F80032C4F8E9
:100CD00000C10B6070BC70470A60C4F880C1BFF3EC
:100CE0004F8FBFF36F8F70BC7047000078000020FB
:100CF000009000400895004040950040109500404D
:100D00000020FFF7C9BD000010B5FFF775FEFFF723
:100D10005BFF04210320FFF7AFFD052000F0BCF8C6
:100D2000012000F0CFF80E49032000F025FB01223E
:100D30000C49022000F0CEFBFFF7E8FD0A4C2060D2
:100D4000FFF718FE0823042202210648FFF7C4FC1F
:100D500001466060206800F02FF9002010BD0000FF
:100D6000010D0000E10D0000000000201B490A6891
:100D7000521C012812D0022815D0032818D00428AC
:100D80001AD005281DD006281FD0072821D00828F2
:100D900018BF7047086A401C086210E04868401C91
:100DA000C1E90020704788680A60401C886070476D
:100DB000C868401CC86002E00869401C08610A60FD
:100DC00070474869401C4861F9E78869401C8861A0
:100DD000F5E7C869401CC861F1E7000090000020F9
:100DE00070B50E460546FFF7D3FA114CA07840289F
:100DF0001AD0FFF7F5FD217801EB41020D4901F80A
:100E0000225001EB8201C1E901602846FFF7AEFFE5
:100E10002078401C00F03F002070A078401CA0709B
:100E2000BDE87040FFF7BCBA6068FFF7BBFDFEE7A6
:100E300034000020B40000202DE9F04115460E4694
:100E40000746FFF7A5FA124CA178E1B16078114A84
:100E500000EB4003401C12F823C002EB830287F82A
:100E600000C053683360926800F03F002A606070F1
:100E7000481EA070FFF7E6FDFFF792FAA078401C2D
:100E8000C0B2BDE8F081FFF78BFA0020BDE8F08129
:100E900034000020B4000020084948600020087099
:100EA000487088700649086048608860C8600861BA
:100EB00048618861C8610862704700003400002002
:100EC00090000020DFF82CC00B49CCF80400002073
:100ED0000870012004220876431C801C01F8303F72
:100EE000521EF8D109208CF800000449022000F0BD
:100EF00043BA00003C000020B40300208D0F000026
:100F000084B01F49032000F037FA44F62061002026
:100F100000F0DCFA0022032100F058FA194E1A4FB3
:100F200002AA01A96846FFF787FF28B33A78002094
:100F3000002AC8BF9DF80010F2DD00BF00EB40039F
:100F400016F833308B4213D100EB400006EBC0059E
:100F5000002468690028E3DD05EB840001994268FC
:100F60009DF8000090476869641CA042F4DCD7E754
:100F7000401C9042E2DBD3E7FFF770FCD0E70000B3
:100F80008D0F0000B40300203C00002010B5C0B25B
:100F9000022806D0032818BF10BDBDE81040FFF797
:100FA00051BC44F62061002000F090FA0022BDE818
:100FB0001040032100F00ABA174A10B5C2E9081020
:100FC000062010700020FFF785FC0120FFF742FD8E
:100FD0000120FFF725FE1149052000F0CDF90F494A
:100FE000022000F0C9F90D49062000F0C5F90B49AF
:100FF000072000F0C1F90949082000F0BDF93221AD
:10100000002000F063FA0022072100F0DFF9BDE8BC
:101010001040FFF775BF00005000002021100000B5
:101020002DE9F047D24C0D46064608280BD1052085
:1010300020700120FFF74EFC606A401EFFF74AFC5B
:10104000606AFFF747FC2078CA4F4FF000084FF066
:101050000109072828BFBDE8F087DFE800F02593E5
:10106000C0FDFCFB0400022E18BFBDE8F08740F66F
:10107000C4116FF0AE026A4301EB42012161A5EB9E
:10108000051140F2DC5001EB810100EB4100606191
:1010900084F800803221002000F018FABDE8F04703
:1010A0000022072100F092B9072E18BFBDE8F08793
:1010B000606A854248D2BDB1012D25D0022D33D0C2
:1010C000032D18BFBDE8F087FA21002000F0FEF9DB
:1010D0000422072100F07AF92846FFF7DDFBBDE87E
:1010E000F0470420FFF7F6BBFA21002000F0EEF9EC
:1010F0000122072100F06AF92846FFF7CDFBBDE881
:10110000F0470120FFF7E6BBFA21002000F0DEF9EE
:101110000222072100F05AF92846FFF7BDFBBDE87F
:10112000F0470220FFF7D6BBFA21002000F0CEF9ED
:101130000322072100F04AF92846FFF7ADFBBDE87E
:10114000F0470320FFF7C6BB0020FFF7A5FBC4F85C
:101150001880C4F80490C4F81C800120216AFFF7AD
:1011600055FD38602069E0606069A06084F80090F7
:101170003221002000F0AAF9BDE8F0470022052145
:1011800000F024B9052E18BFBDE8F087A06957F814
:1011900020008DB1FFF780FBA069401CA061616851
:1011A000884215D20020A16800F090F9BDE8F04710
:1011B0000022052100F00AB9FFF78CFB0020E1684E
:1011C00000F084F9BDE8F0470122052100F0FEB8E7
:1011D00002202070C4F81880C4F81C8033E0042179
:1011E000022E0ED0062E18BFBDE8F08721703221E6
:1011F000002000F06BF9BDE8F0470022072100F065
:10120000E5B8A0696B1C57F820209A422AD1E16901
:10121000401C491CC4E906016068814213D10320C7
:1012200020700021084600F051F92A46062100F0FE
:10123000CDF83221002000F049F9BDE8F047002246
:10124000072100F0C3B841F28831002000F03EF9D8
:101250002A4602E07FE058E017E0BDE8F0470621AB
:1012600000F0B4B821700021084600F02FF92A469A
:10127000062100F0ABF83221002000F027F9BDE88C
:10128000F0470022072100F0A1B8072E18BFBDE8E3
:10129000F0874FF000002DB3FFF7FEFAE068B0F5DD
:1012A000FA7F84BFFA38E060A068B0F5FA7F84BFA7
:1012B000FA38A0600120216AFFF7A8FC616847F8AE
:1012C0002100481CC4F81880606084F800904FF436
:1012D0007A71002000F0FAF8BDE8F04700220521FD
:1012E00000F074B8FFF7D8FA0120FFF7F3FA606A4C
:1012F000FFF7F0FA4FF4FA71002000F0E7F8BDE8CC
:10130000F0470122072100F061B8072E18BFBDE8A1
:10131000F0874FF0000075B1FFF7BEFA84F8008047
:101320004FF47A71002000F0D1F8BDE8F0470022B8
:10133000072100F04BB8FFF7AFFA0020FFF7CAFA19
:101340004FF4FA71002000F0C1F8BDE8F047012227
:10135000072100F03BB80120FFF7BCFA606A401E8D
:10136000FFF7B8FA606ABDE8F047FFF7B3BA0000CC
:1013700050000020EC04002070B5124C00222378AD
:10138000002BC6BF00F0FF0C0F4870BD02EB4205FA
:1013900010F83550654511D102EB420200EBC20056
:1013A0004269042A03DB6068FFF7FCFAFEE700EB02
:1013B000820251604169491C416170BD521C9A42D0
:1013C000E4DB70BD3C000020B40300202DE9F047B1
:1013D0003D4C3C4B4FF00009D4F808C0C9B200287E
:1013E00053D0C70F20F0004500204FF0010800BF88
:1013F00000EB400603EBC60A9AF80CA08A4504BF2E
:1014000053F83660012E15D000F101000428EFDBFF
:10141000BCF1040FB8BF002033DA00BF00EB400C72
:1014200053F83CC0BCF1000F16D0401C0428F5DB7B
:10143000BDE8F08700EB400003EBC004217322619C
:10144000FFF7BEFA28446061002F14BFC4E90158B9
:10145000C4F80890BDE8F08700EB400003EBC0063D
:10146000317343F830803261FFF7AAFA2844706183
:10147000002F14BFC6E90158C6F80890A068401CA8
:1014800017E02068FFF78EFAFEE70020BCF1000F9E
:10149000D8BFBDE8F08700BF00EB400203EBC202FB
:1014A000127B8A4208D100EB400043F83090ACF147
:1014B0000100A060BDE8F087401C6045ECDBBDE8A2
:1014C000F08700008C0400204400002041EAC07036
:1014D0007047000070B5174B0C461546C3E9000174
:1014E00000209860144B1549186058609860187374
:1014F000186158619861D861186283F82400986275
:10150000D86218635863986383F83C001864586481
:101510009864D864186583F854009865D8651046B7
:10152000FFF72AFF2A462146BDE870403220FFF728
:101530006BBA0000440000208C040020411500001C
:101540002DE9F047C0B2012818BFBDE8F08700269A
:10155000B146DFF85080144DFFF732FA06EB46072C
:1015600005EBC704616988420ED355F8370058B1BE
:10157000D8F80420207B21699047A06848B1FFF784
:101580001FFA616808446061761C042EE4DBBDE844
:10159000F08745F83790D8F80800401EC8F80800D2
:1015A000F2E70000440000208C0400200D0E0F1014
:1015B0000B0C18191C1D1E1FD81500000000002060
:1015C000900000008C0600006816000090000020CB
:1015D000F04500009C060000000000000000000034
:1015E00000000000000000000000000000000000FB
:1015F00000000000000000000000000000000000EB
:1016000000000000000000000000000000000000DA
:1016100000000000000000000000000000000000CA
:1016200000000000000000000000000000000000BA
:1016300000000000000000000000000000000000AA
:10164000000000000000000000000000000000009A
:10165000000000000000000000000000000000008A
:08166000000000000090D0031F
:0400000500000215E0
:00000001FF
