:020000040000FA
:1000000028430020150200001D0200001F0200000E
:100010002102000023020000250200000000000071
:1000200000000000000000000000000027020000A7
:1000300029020000000000002B0200002D02000039
:100040002F0200002F0200002F0200002F020000EC
:100050002F0200002F0200002F0200002F020000DC
:100060007D050000AD0500002F0200002F020000FA
:100070002F0200002F0200002F0200002F020000BC
:100080002F0200002F0200002F0200002F020000AC
:100090002F0200002F0200002F0200002F0200009C
:1000A0002F0200002F0200002F0200002F0200008C
:1000B0002F0200002F0200000000000000000000DE
:1000C0002F0200002F0200002F0200002F0200006C
:1000D0002F0200002F0200002F0200002F0200005C
:1000E0002F0200002F0200002F020000000000007D
:1000F000000000002F020000000000002F0200009E
:1001000000000000000000000000000000000000EF
:1001100000000000000000000000000000000000DF
:1001200000000000000000000000000000000000CF
:1001300000000000000000000000000000000000BF
:1001400000000000000000000000000000000000AF
:10015000000000000000000000000000000000009F
:10016000000000000000000000000000000000008F
:10017000000000000000000000000000000000007F
:10018000000000000000000000000000000000006F
:10019000000000000000000000000000000000005F
:1001A000000000000000000000000000000000004F
:1001B000000000000000000000000000000000003F
:1001C000000000000000000000000000000000002F
:1001D000000000000000000000000000000000001F
:1001E000000000000000000000000000000000000F
:1001F00000000000000000000000000000000000FF
:10020000DFF80CD000F068F800480047A1080000B3
:10021000284300200648804706480047FEE7FEE7DF
:10022000FEE7FEE7FEE7FEE7FEE7FEE7FEE7FEE7A6
:10023000FD020000010200002DE9F05F05460020EC
:1002400092469B4688460646814640241BE0284647
:1002500041464746224600F02FF853465A46C01AF8
:10026000914110D311461846224600F016F82D1A77
:1002700067EB01084F4622460120002100F00DF8EF
:1002800017EB00094E41201EA4F10104DFDC4846B3
:1002900031462A464346BDE8F09F202A04DB203A37
:1002A00000FA02F1002070479140C2F1200320FAC9
:1002B00003F3194390407047202A04DB203A21FAC7
:1002C00002F00021704721FA02F3D040C2F120026F
:1002D0009140084319467047064C074D06E0E06818
:1002E00040F0010394E8070098471034AC42F6D37D
:1002F000FFF78AFFA0090000C009000010B44FF00A
:1003000080520023D2E94C10082909D14FF0804CCB
:10031000CCF80C31CCF81031DFF8D4C1CCF8003077
:10032000082965D1734B1B68DFF8CCC1CCF80030CD
:10033000724B1B680CF1040CCCF80030704B1B683E
:100340000CF1040CCCF800306E4B1B680CF1040C63
:10035000CCF800306C4B1B680CF1040CCCF800306E
:100360006A4B1B680CF1040CCCF80030684B1B681E
:10037000DFF8A0C1CCF80030674B1B680CF1040C0F
:10038000CCF80030654B1B680CF1040CCCF8003045
:10039000634B1B680CF1040CCCF80030614B1B68FC
:1003A0000CF1040CCCF800305F4B1B680CF1040C12
:1003B000CCF800305D4B1B68DFF874C1CCF800301E
:1003C0005C4B1B680CF1040CCCF800305A4B1B68DA
:1003D0000CF1040CCCF80030584B1B680CF1040CE9
:1003E000CCF80030564B1B680CF1040CCCF80030F4
:1003F000082908BF5FEA000304D1DFF84CC1514B64
:10040000CCF80030082908BF5FEA000304D1DFF808
:100410003CC1FB23CCF80030082908BF5FEA000389
:1004200008D14B4B92F85842D3F800C064F3030C48
:10043000C3F800C0082908BF5FEA000305D1DFF850
:1004400014C14FF40073CCF80030082907D142489A
:10045000016811F0010F1CBF6FF0010101603F48FE
:10046000016841F470010160BFF34F8FBFF36F8FDC
:10047000D2E94C104FF01022082905D1042803D9E5
:10048000D2F8080236490860D2F8000210F0004F96
:1004900004BFD2F8040210F0004F24D0314B0120E9
:1004A0001860314801680029FCD04FF0120CC2F8E6
:1004B00000C201680029FCD0C2F804C2016800290A
:1004C000FCD00021196001680029FCD0BFF34F8FD8
:1004D00026480168264A01F4E06111430160BFF338
:1004E0004F8F00BFFDE724492248086010BC7047C9
:1004F000380500400404001020C500400804001026
:100500000C04001010040010140400101804001053
:100510001C04001040C500402004001024040010FA
:10052000280400102C0400103004001034040010C3
:1005300060C50040380400103C0400104004001066
:1005400044040010488103008C56004018F5004018
:10055000E40E0040409602400004004088ED00E0B8
:100560005805004004E5014000E401400CED00E0C6
:100570000400FA050090D00324000020094881B04F
:10058000D0F8401101291CBF01B070470021C0F80C
:100590004011D0F84001009003480168491C0160F7
:1005A00001B07047008000401C00002038B5074CA7
:1005B000D4F84001012808D1054840688047002050
:1005C000C4F84001D4F84001009038BD00900040CC
:1005D0001C00002002E008C8121F08C1002AFAD13E
:1005E00070477047002001E001C1121F002AFBD1B3
:1005F00070470000044810B5006800F041F8BDE8FD
:10060000104000F0A5B800000C000020411E032996
:1006100088BF704710B506490C1814F8010C00F09B
:10062000B7F8C14314F8010CBDE8104000F092B8CF
:1006300098090000411E032988BF704703490844F8
:10064000002110F8010C00F085B8000098090000A6
:1006500070B50A4D00240121285D00F0A5F8601C4A
:10066000032C06D828444FF0FF3110F8010C00F09D
:1006700071F8641C042CEED3042070BD98090000AE
:10068000411E032988BF7047034908444FF0FF31DA
:1006900010F8010C00F05EB89C09000070B50A4D1E
:1006A00000240121285D00F07FF8601C032C06D88F
:1006B00028444FF0FF3110F8010C00F04BF8641C97
:1006C000042CEED3042070BD9C09000010B500F08E
:1006D0007DF8054A00231268FFF7AEFD4FF47A72E9
:1006E0000023FFF7A9FD10BD0000002010B500F0A9
:1006F0006DF8034A00231268FFF79EFD10BD00004D
:100700000000002010B500F077F80149086010BD26
:1007100000000020064BD3F800C0C3E9012100FB14
:100720000CF04FF47A7C00FB0CF0024900F088B822
:10073000000000203907000010B5FFF7C7FF034A8B
:100740000146D2E90102BDE8104010470000002038
:1007500030BF7047012202FA00F011F0010F0CBF08
:1007600001490249086070470C0500500805005017
:10077000054901200860091D0860091D0860091D60
:100780000860024908607047340700507C07005039
:10079000012101FA00F003490968084018BF01204F
:1007A00070470000040500500122824006480029DD
:1007B00004BF0168914304D0012906BF01681143B9
:1007C0007047016070470000140500500749012080
:1007D0004864074800686FF00101A0FB0123054849
:1007E0000068101843F100017047000000800040CD
:1007F0001C000020448500400C49002008600C4A81
:10080000032111600B4908600B49801E08600B48EA
:100810004FF48031C0F8041301214FF0E02382151A
:10082000C3F8002101601020704700001C00002068
:100830000885004010850040408500400080004051
:1008400070B4124A4FF4007C4FF0E0245160002253
:100850000F49012380B10F4E032535600E4D2860EE
:100860000E4802601804C1F80403C1F80032C4F84D
:1008700000C10B6070BC70470A60C4F880C1BFF350
:100880004F8FBFF36F8F70BC704700001C000020BB
:1008900000900040089500404095004010950040B1
:1008A00010B584B0FFF72EFFFFF762FFFFF7D0FE11
:1008B0000446FFF7F3FE002C11BF0028002004B00F
:1008C00010BD4FF00404204600F05CF82046FFF70E
:1008D000B1FE012208494FF4FA70FFF71BFF02AA8C
:1008E00001A9684600F02AF818B12046FFF78EFEED
:1008F000F5E7FFF77FFEF2E7FD08000070B50D4C4D
:1009000005460E46A078402813D0FFF7EFFE217869
:10091000094A01EB410302F8235002EB8302C2E9CA
:100920000160481C00F03F002070A078401CA070BF
:1009300070BDFEE71400002028000020F0B40F4B2B
:100940009C78002C02BF0020F0BC704793F801C0D7
:100950000CEB4C060A4D15F82670077005EB860067
:1009600045680D60806810600CF1010000F03F00E8
:100970005870601E9870E0B2F0BC70471400002000
:1009800028000020034948600020087048708870E3
:1009900070470000140000200D0E0F101C1D1E1FBC
:1009A000C00900000000002028000000D40500005D
:1009B000E80900002800002000430000E4050000D2
:1009C0000000000000000000000000000000000027
:1009D0000000000000000000000000000000000017
:0809E000000000000090D003AC
:0400000500000215E0
:00000001FF
